:1008BB00C289D2AFD288D2A87590FF75B004E4F587
:0508CB0080F5A080FE95
:03000300020800F0
:10080000C0E0C0F0C083C082C0D075D000C000C0BE
:1008100001C002C003C004C005C006C007E590B413
:10082000FE1B7580081208D07580041208D07580F0
:10083000021208D07580011208D0758000E590B4CE
:10084000FD1B7580011208D07580021208D07580DA
:10085000041208D07580081208D0758000E590B4A5
:10086000FB1B75A0081208D075A0041208D075A053
:10087000021208D075A0011208D075A000E590B44E
:10088000F71B75A0011208D075A0021208D075A040
:10089000041208D075A0081208D075A0007590FF4A
:1008A000D007D006D005D004D003D002D001D000AC
:0B08B000D0D0D082D083D0F0D0E03256
:1008D000758901758AF7758CE2D28C308DFDC28CDA
:0308E000C28D22A4
:030000000208E310
:0C08E300787FE4F6D8FD7581070208BBA1
:00000001FF
